{
  "_format": "hh-sol-artifact-1",
  "contractName": "Poshblock",
  "sourceName": "contracts/Poshblock.sol",
  "abi": [
    {
      "inputs": [],
      "stateMutability": "nonpayable",
      "type": "constructor"
    },
    {
      "inputs": [],
      "name": "allContracts",
      "outputs": [
        {
          "components": [
            {
              "internalType": "uint256",
              "name": "id",
              "type": "uint256"
            },
            {
              "internalType": "string",
              "name": "title",
              "type": "string"
            },
            {
              "internalType": "string",
              "name": "creatorId",
              "type": "string"
            },
            {
              "internalType": "string",
              "name": "receiverId",
              "type": "string"
            },
            {
              "internalType": "string",
              "name": "docLink",
              "type": "string"
            },
            {
              "internalType": "string",
              "name": "span",
              "type": "string"
            }
          ],
          "internalType": "struct Poshblock.Contract[]",
          "name": "",
          "type": "tuple[]"
        }
      ],
      "stateMutability": "view",
      "type": "function"
    },
    {
      "inputs": [
        {
          "internalType": "uint256",
          "name": "",
          "type": "uint256"
        }
      ],
      "name": "contracts",
      "outputs": [
        {
          "internalType": "uint256",
          "name": "id",
          "type": "uint256"
        },
        {
          "internalType": "string",
          "name": "title",
          "type": "string"
        },
        {
          "internalType": "string",
          "name": "creatorId",
          "type": "string"
        },
        {
          "internalType": "string",
          "name": "receiverId",
          "type": "string"
        },
        {
          "internalType": "string",
          "name": "docLink",
          "type": "string"
        },
        {
          "internalType": "string",
          "name": "span",
          "type": "string"
        }
      ],
      "stateMutability": "view",
      "type": "function"
    },
    {
      "inputs": [],
      "name": "count",
      "outputs": [
        {
          "internalType": "uint256",
          "name": "",
          "type": "uint256"
        }
      ],
      "stateMutability": "view",
      "type": "function"
    },
    {
      "inputs": [
        {
          "internalType": "string",
          "name": "_title",
          "type": "string"
        },
        {
          "internalType": "string",
          "name": "_cid",
          "type": "string"
        },
        {
          "internalType": "string",
          "name": "_rid",
          "type": "string"
        },
        {
          "internalType": "string",
          "name": "_doclink",
          "type": "string"
        },
        {
          "internalType": "string",
          "name": "_span",
          "type": "string"
        }
      ],
      "name": "createContract",
      "outputs": [],
      "stateMutability": "nonpayable",
      "type": "function"
    },
    {
      "inputs": [],
      "name": "manager",
      "outputs": [
        {
          "internalType": "address",
          "name": "",
          "type": "address"
        }
      ],
      "stateMutability": "view",
      "type": "function"
    }
  ],
  "bytecode": "0x6080604052600060015534801561001557600080fd5b5033600260006101000a81548173ffffffffffffffffffffffffffffffffffffffff021916908373ffffffffffffffffffffffffffffffffffffffff1602179055506112db806100666000396000f3fe608060405234801561001057600080fd5b50600436106100575760003560e01c806306661abd1461005c578063474da79a1461007a578063481c6a75146100af57806372828388146100cd57806374aef1d1146100e9575b600080fd5b610064610107565b60405161007191906109cf565b60405180910390f35b610094600480360381019061008f9190610a20565b61010d565b6040516100a696959493929190610add565b60405180910390f35b6100b7610401565b6040516100c49190610ba2565b60405180910390f35b6100e760048036038101906100e29190610c22565b610427565b005b6100f1610673565b6040516100fe9190610eff565b60405180910390f35b60015481565b6000818154811061011d57600080fd5b906000526020600020906006020160009150905080600001549080600101805461014690610f50565b80601f016020809104026020016040519081016040528092919081815260200182805461017290610f50565b80156101bf5780601f10610194576101008083540402835291602001916101bf565b820191906000526020600020905b8154815290600101906020018083116101a257829003601f168201915b5050505050908060020180546101d490610f50565b80601f016020809104026020016040519081016040528092919081815260200182805461020090610f50565b801561024d5780601f106102225761010080835404028352916020019161024d565b820191906000526020600020905b81548152906001019060200180831161023057829003601f168201915b50505050509080600301805461026290610f50565b80601f016020809104026020016040519081016040528092919081815260200182805461028e90610f50565b80156102db5780601f106102b0576101008083540402835291602001916102db565b820191906000526020600020905b8154815290600101906020018083116102be57829003601f168201915b5050505050908060040180546102f090610f50565b80601f016020809104026020016040519081016040528092919081815260200182805461031c90610f50565b80156103695780601f1061033e57610100808354040283529160200191610369565b820191906000526020600020905b81548152906001019060200180831161034c57829003601f168201915b50505050509080600501805461037e90610f50565b80601f01602080910402602001604051908101604052809291908181526020018280546103aa90610f50565b80156103f75780601f106103cc576101008083540402835291602001916103f7565b820191906000526020600020905b8154815290600101906020018083116103da57829003601f168201915b5050505050905086565b600260009054906101000a900473ffffffffffffffffffffffffffffffffffffffff1681565b60006040518060c0016040528060015481526020018c8c8080601f016020809104026020016040519081016040528093929190818152602001838380828437600081840152601f19601f8201169050808301925050505050505081526020018a8a8080601f016020809104026020016040519081016040528093929190818152602001838380828437600081840152601f19601f82011690508083019250505050505050815260200188888080601f016020809104026020016040519081016040528093929190818152602001838380828437600081840152601f19601f82011690508083019250505050505050815260200186868080601f016020809104026020016040519081016040528093929190818152602001838380828437600081840152601f19601f82011690508083019250505050505050815260200184848080601f016020809104026020016040519081016040528093929190818152602001838380828437600081840152601f19601f8201169050808301925050505050505081525090806001815401808255809150506001900390600052602060002090600602016000909190919091506000820151816000015560208201518160010190816105f4919061115c565b50604082015181600201908161060a919061115c565b506060820151816003019081610620919061115c565b506080820151816004019081610636919061115c565b5060a082015181600501908161064c919061115c565b505050600160008154809291906106629061125d565b919050555050505050505050505050565b60606000805480602002602001604051908101604052809291908181526020016000905b828210156109ad57838290600052602060002090600602016040518060c0016040529081600082015481526020016001820180546106d490610f50565b80601f016020809104026020016040519081016040528092919081815260200182805461070090610f50565b801561074d5780601f106107225761010080835404028352916020019161074d565b820191906000526020600020905b81548152906001019060200180831161073057829003601f168201915b5050505050815260200160028201805461076690610f50565b80601f016020809104026020016040519081016040528092919081815260200182805461079290610f50565b80156107df5780601f106107b4576101008083540402835291602001916107df565b820191906000526020600020905b8154815290600101906020018083116107c257829003601f168201915b505050505081526020016003820180546107f890610f50565b80601f016020809104026020016040519081016040528092919081815260200182805461082490610f50565b80156108715780601f1061084657610100808354040283529160200191610871565b820191906000526020600020905b81548152906001019060200180831161085457829003601f168201915b5050505050815260200160048201805461088a90610f50565b80601f01602080910402602001604051908101604052809291908181526020018280546108b690610f50565b80156109035780601f106108d857610100808354040283529160200191610903565b820191906000526020600020905b8154815290600101906020018083116108e657829003601f168201915b5050505050815260200160058201805461091c90610f50565b80601f016020809104026020016040519081016040528092919081815260200182805461094890610f50565b80156109955780601f1061096a57610100808354040283529160200191610995565b820191906000526020600020905b81548152906001019060200180831161097857829003601f168201915b50505050508152505081526020019060010190610697565b50505050905090565b6000819050919050565b6109c9816109b6565b82525050565b60006020820190506109e460008301846109c0565b92915050565b600080fd5b600080fd5b6109fd816109b6565b8114610a0857600080fd5b50565b600081359050610a1a816109f4565b92915050565b600060208284031215610a3657610a356109ea565b5b6000610a4484828501610a0b565b91505092915050565b600081519050919050565b600082825260208201905092915050565b60005b83811015610a87578082015181840152602081019050610a6c565b60008484015250505050565b6000601f19601f8301169050919050565b6000610aaf82610a4d565b610ab98185610a58565b9350610ac9818560208601610a69565b610ad281610a93565b840191505092915050565b600060c082019050610af260008301896109c0565b8181036020830152610b048188610aa4565b90508181036040830152610b188187610aa4565b90508181036060830152610b2c8186610aa4565b90508181036080830152610b408185610aa4565b905081810360a0830152610b548184610aa4565b9050979650505050505050565b600073ffffffffffffffffffffffffffffffffffffffff82169050919050565b6000610b8c82610b61565b9050919050565b610b9c81610b81565b82525050565b6000602082019050610bb76000830184610b93565b92915050565b600080fd5b600080fd5b600080fd5b60008083601f840112610be257610be1610bbd565b5b8235905067ffffffffffffffff811115610bff57610bfe610bc2565b5b602083019150836001820283011115610c1b57610c1a610bc7565b5b9250929050565b60008060008060008060008060008060a08b8d031215610c4557610c446109ea565b5b60008b013567ffffffffffffffff811115610c6357610c626109ef565b5b610c6f8d828e01610bcc565b9a509a505060208b013567ffffffffffffffff811115610c9257610c916109ef565b5b610c9e8d828e01610bcc565b985098505060408b013567ffffffffffffffff811115610cc157610cc06109ef565b5b610ccd8d828e01610bcc565b965096505060608b013567ffffffffffffffff811115610cf057610cef6109ef565b5b610cfc8d828e01610bcc565b945094505060808b013567ffffffffffffffff811115610d1f57610d1e6109ef565b5b610d2b8d828e01610bcc565b92509250509295989b9194979a5092959850565b600081519050919050565b600082825260208201905092915050565b6000819050602082019050919050565b610d74816109b6565b82525050565b600082825260208201905092915050565b6000610d9682610a4d565b610da08185610d7a565b9350610db0818560208601610a69565b610db981610a93565b840191505092915050565b600060c083016000830151610ddc6000860182610d6b565b5060208301518482036020860152610df48282610d8b565b91505060408301518482036040860152610e0e8282610d8b565b91505060608301518482036060860152610e288282610d8b565b91505060808301518482036080860152610e428282610d8b565b91505060a083015184820360a0860152610e5c8282610d8b565b9150508091505092915050565b6000610e758383610dc4565b905092915050565b6000602082019050919050565b6000610e9582610d3f565b610e9f8185610d4a565b935083602082028501610eb185610d5b565b8060005b85811015610eed5784840389528151610ece8582610e69565b9450610ed983610e7d565b925060208a01995050600181019050610eb5565b50829750879550505050505092915050565b60006020820190508181036000830152610f198184610e8a565b905092915050565b7f4e487b7100000000000000000000000000000000000000000000000000000000600052602260045260246000fd5b60006002820490506001821680610f6857607f821691505b602082108103610f7b57610f7a610f21565b5b50919050565b7f4e487b7100000000000000000000000000000000000000000000000000000000600052604160045260246000fd5b60008190508160005260206000209050919050565b60006020601f8301049050919050565b600082821b905092915050565b6000600883026110127fffffffffffffffffffffffffffffffffffffffffffffffffffffffffffffffff82610fd5565b61101c8683610fd5565b95508019841693508086168417925050509392505050565b6000819050919050565b600061105961105461104f846109b6565b611034565b6109b6565b9050919050565b6000819050919050565b6110738361103e565b61108761107f82611060565b848454610fe2565b825550505050565b600090565b61109c61108f565b6110a781848461106a565b505050565b5b818110156110cb576110c0600082611094565b6001810190506110ad565b5050565b601f821115611110576110e181610fb0565b6110ea84610fc5565b810160208510156110f9578190505b61110d61110585610fc5565b8301826110ac565b50505b505050565b600082821c905092915050565b600061113360001984600802611115565b1980831691505092915050565b600061114c8383611122565b9150826002028217905092915050565b61116582610a4d565b67ffffffffffffffff81111561117e5761117d610f81565b5b6111888254610f50565b6111938282856110cf565b600060209050601f8311600181146111c657600084156111b4578287015190505b6111be8582611140565b865550611226565b601f1984166111d486610fb0565b60005b828110156111fc578489015182556001820191506020850194506020810190506111d7565b868310156112195784890151611215601f891682611122565b8355505b6001600288020188555050505b505050505050565b7f4e487b7100000000000000000000000000000000000000000000000000000000600052601160045260246000fd5b6000611268826109b6565b91507fffffffffffffffffffffffffffffffffffffffffffffffffffffffffffffffff820361129a5761129961122e565b5b60018201905091905056fea26469706673582212200e806f700c49ea1c1cb69820e16ea66023b2de28d3dd5627f68cdd3a624c330664736f6c63430008130033",
  "linkReferences": {},
  "deployedLinkReferences": {}
}